:1000000000308A003C280000831A0A28A500030E4D
:10001000A6000F288312A500030EA600A6140A0846
:10002000AD008A018313A50E0408A7002008A800CC
:100030002108A9002208AA002308AB002408AC006C
:1000400083128C308400001C27280C1842282708B3
:1000500084002808A0002908A1002A08A2002B0873
:10006000A3002C08A4002D088A00260E830083120A
:10007000250EA61883160900FF2383169000003072
:100080008A00EC28C30A4308063C03184828451494
:100090000C108A1127284F308400000803195F28AC
:1000A0000130A100A001A00B5328A10B52284A3017
:1000B000A000A00B592800000000800B502800343D
:1000C0009F149F1861281E08033C031C7328051CFD
:1000D0000516451C6D28851073281030A000A00B54
:1000E0006F28000060281E30CF004B20C408031D7D
:1000F0007E2845187E288E01C3018F015C290D30B2
:10010000CF02031890284F308400FC308005800C0B
:10011000800C0008031990288E280000800B8D2881
:1001200000341F08BF399F0083161F08F0399F0055
:1001300005118312CE014E08633C031CAB28051544
:10014000D430A000A00BA2280511D330A000A00B32
:10015000A728CE0A9B286430CF004B20CE014E0842
:10016000633C031CC1280515FC30A000A00BB62879
:1001700000000511FB30A000A00BBC280000CE0A37
:10018000AF286430CF004B20CE014E08633C031CE7
:10019000D92805150130CF004B208830CF007F20B3
:1001A00005110130CF004B208630CF007F20CE0AD2
:1001B000C5286430CF004B208316051583121F0815
:1001C000BF399F0083161F08F03904389F00643040
:1001D0008312CF004B20462A84011F3083051F085D
:1001E000BF399F0083161F08F0390F389F00073072
:1001F00083129F00AE01AF01B001B101B201B301A2
:10020000B401B501B601B701B801B901BA01BB012A
:10021000BC01BD01BE01BF01C001C101C201C301DA
:10022000C40145101F08BF399F0083161F08F0390D
:1002300004389F001F088F3930389F0083129F13A6
:100240001F140830A000A01D2D2907308101813026
:1002500084000008C0390F388000640081308400B9
:100260000008C03920048000B530900007309900A4
:100270008316050803308312A000A00B3D2919083E
:100280008C118316990108308312A1001F08C3390D
:1002900021049F0085010D3083168500810115140E
:1002A00083128F018E0183160C14C03083128B04CD
:1002B00010144510C401602845188229851444088B
:1002C000013C031879290F08C600C60CC60CC60CE1
:1002D0001F30C605C30EC30DE030C305C305430878
:1002E000C60402304402C9002E3049078400460883
:1002F0008000C40A4408143C031CC4018E01C301DD
:100300008F015E2A4408023C0318592A0330C402B4
:10031000051EE629C7014708163C031CA729470804
:1003200083169B00FF309A001C1583120B08A00057
:100330008B13831655309D00AA309D009C149C1889
:100340009F291C11831220088B04C70A8B297F3038
:1003500083169B008312440883169A001C1583128F
:100360000B08A0008B13831655309D00AA309D000A
:100370009C149C18B9291C11831220088B04C701F6
:1003800047084402031CE3292E3047078400000875
:10039000CE00470883169B0083124E0883169A00EE
:1003A0001C1583120B08A0008B13831655309D007B
:1003B000AA309D009C149C18DB291C118312200874
:1003C0008B04C70AC0290512C401592AC801C701F4
:1003D000440847020318362A470883169B009C13DB
:1003E0001C141A088312A301CA002308CB002E3064
:1003F000470784000008A301CC002308CD000A3081
:100400004A07A1004B08A3000318A30A2108CD1F27
:100410000C2AA31F182A0E2AA31B342A4D082302D4
:10042000031C342A031D182A4C082102031C342AF9
:100430000A304A02A0004B08A3000030031C013020
:10044000A3022008A100A31F282ACD1F332A2A2A8D
:10045000CD1B342A23084D02031C342A031D332AE2
:1004600021084C020318C80AC70AE82948084702AD
:10047000031D592A7F3083169B009C131C141A08F5
:1004800083124702031D592A851691281430CE0085
:10049000FA30CF004B20CE0B482A8512C7014708FF
:1004A000133C031C592A2E30470784008001C70AD9
:1004B0004F2AC3018E018F014510C4015B296300DF
:02400E009439E3
:00000001FF
;PIC12F675
